{
  "contractName": "AnotherImplV1",
  "abi": [
    {
      "constant": true,
      "inputs": [],
      "name": "value",
      "outputs": [
        {
          "name": "",
          "type": "uint256"
        }
      ],
      "payable": false,
      "stateMutability": "view",
      "type": "function"
    },
    {
      "constant": false,
      "inputs": [
        {
          "name": "_value",
          "type": "uint256"
        }
      ],
      "name": "initialize",
      "outputs": [],
      "payable": false,
      "stateMutability": "nonpayable",
      "type": "function"
    },
    {
      "constant": true,
      "inputs": [],
      "name": "say",
      "outputs": [
        {
          "name": "",
          "type": "string"
        }
      ],
      "payable": false,
      "stateMutability": "pure",
      "type": "function"
    }
  ],
  "bytecode": "0x608060405234801561001057600080fd5b506101bd806100206000396000f300608060405260043610610057576000357c0100000000000000000000000000000000000000000000000000000000900463ffffffff1680633fa4f2451461005c578063954ab4b214610087578063fe4b84df14610117575b600080fd5b34801561006857600080fd5b50610071610144565b6040518082815260200191505060405180910390f35b34801561009357600080fd5b5061009c61014a565b6040518080602001828103825283818151815260200191508051906020019080838360005b838110156100dc5780820151818401526020810190506100c1565b50505050905090810190601f1680156101095780820380516001836020036101000a031916815260200191505b509250505060405180910390f35b34801561012357600080fd5b5061014260048036038101908080359060200190929190505050610187565b005b60005481565b60606040805190810160405280600981526020017f416e6f7468657256310000000000000000000000000000000000000000000000815250905090565b80600081905550505600a165627a7a723058200cfd84e12c1a6eb553f7375befeda96ccf617c447ecbdcb154f8e5c00f73a70a0029",
  "source": "pragma solidity ^0.4.21;\n\ncontract ImplV1 {\n  uint256 public value;\n\n  function initialize(uint256 _value) public {\n    value = _value;\n  }\n\n  function say() public pure returns (string) {\n    return \"V1\";\n  }\n}\n\ncontract AnotherImplV1 is ImplV1 {\n  function say() public pure returns (string) {\n    return \"AnotherV1\";\n  }\n}\n\ncontract UninitializableImplV1 {\n  function say() public pure returns (string) {\n    return \"UninitializableImplV1\";\n  }\n}",
  "sourcePath": "/home/gjp/repos/zos-cli/contracts/mocks/ImplV1.sol",
  "compiler": {
    "name": "solc",
    "version": "0.4.24+commit.e67f0147.Emscripten.clang"
  },
  "schemaVersion": "2.0.0",
  "updatedAt": "2018-06-11T04:41:48.243Z"
}