{
  "contractName": "AnotherImplV2",
  "abi": [
    {
      "constant": true,
      "inputs": [],
      "name": "value",
      "outputs": [
        {
          "name": "",
          "type": "uint256"
        }
      ],
      "payable": false,
      "stateMutability": "view",
      "type": "function"
    },
    {
      "constant": false,
      "inputs": [
        {
          "name": "newVal",
          "type": "uint256"
        }
      ],
      "name": "migrate",
      "outputs": [],
      "payable": false,
      "stateMutability": "nonpayable",
      "type": "function"
    },
    {
      "constant": false,
      "inputs": [
        {
          "name": "_value",
          "type": "uint256"
        }
      ],
      "name": "initialize",
      "outputs": [],
      "payable": false,
      "stateMutability": "nonpayable",
      "type": "function"
    },
    {
      "constant": true,
      "inputs": [],
      "name": "say",
      "outputs": [
        {
          "name": "",
          "type": "string"
        }
      ],
      "payable": false,
      "stateMutability": "pure",
      "type": "function"
    }
  ],
  "bytecode": "0x608060405234801561001057600080fd5b506101ff806100206000396000f300608060405260043610610062576000357c0100000000000000000000000000000000000000000000000000000000900463ffffffff1680633fa4f24514610067578063454b060814610092578063954ab4b2146100bf578063fe4b84df1461014f575b600080fd5b34801561007357600080fd5b5061007c61017c565b6040518082815260200191505060405180910390f35b34801561009e57600080fd5b506100bd60048036038101908080359060200190929190505050610182565b005b3480156100cb57600080fd5b506100d461018c565b6040518080602001828103825283818151815260200191508051906020019080838360005b838110156101145780820151818401526020810190506100f9565b50505050905090810190601f1680156101415780820380516001836020036101000a031916815260200191505b509250505060405180910390f35b34801561015b57600080fd5b5061017a600480360381019080803590602001909291905050506101c9565b005b60005481565b8060008190555050565b60606040805190810160405280600981526020017f416e6f7468657256320000000000000000000000000000000000000000000000815250905090565b80600081905550505600a165627a7a72305820d66a8583f28e4325460595d48cd6126ef9053bf70f520638231c0fee5d8362d80029",
  "source": "pragma solidity ^0.4.21;\n\nimport \"./ImplV1.sol\";\n\ncontract ImplV2 is ImplV1 {\n\n  function migrate(uint256 newVal) public {\n    value = newVal;\n  }\n\n  function say() public pure returns (string) {\n    return \"V2\";\n  }\n}\n\ncontract AnotherImplV2 is ImplV2 {\n  function say() public pure returns (string) {\n    return \"AnotherV2\";\n  }\n}\n\ncontract UnmigratableImplV2 is ImplV2 {\n  function migrate(uint256 newVal) public {\n    assert(false);\n  }\n\n  function say() public pure returns (string) {\n    return \"UnmigratableImplV2\";\n  }\n}\n",
  "sourcePath": "/home/gjp/repos/zos-cli/contracts/mocks/ImplV2.sol",
  "compiler": {
    "name": "solc",
    "version": "0.4.24+commit.e67f0147.Emscripten.clang"
  },
  "schemaVersion": "2.0.0",
  "updatedAt": "2018-06-11T04:41:48.243Z"
}