{
  "contractName": "UninitializableImplV1",
  "abi": [
    {
      "constant": true,
      "inputs": [],
      "name": "say",
      "outputs": [
        {
          "name": "",
          "type": "string"
        }
      ],
      "payable": false,
      "stateMutability": "pure",
      "type": "function"
    }
  ],
  "bytecode": "0x608060405234801561001057600080fd5b5061013f806100206000396000f300608060405260043610610041576000357c0100000000000000000000000000000000000000000000000000000000900463ffffffff168063954ab4b214610046575b600080fd5b34801561005257600080fd5b5061005b6100d6565b6040518080602001828103825283818151815260200191508051906020019080838360005b8381101561009b578082015181840152602081019050610080565b50505050905090810190601f1680156100c85780820380516001836020036101000a031916815260200191505b509250505060405180910390f35b60606040805190810160405280601581526020017f556e696e697469616c697a61626c65496d706c563100000000000000000000008152509050905600a165627a7a72305820830d0d010c5fe0981ba8c8256d1f483e8a56845ded16de96789f0fc39747eaf60029",
  "source": "pragma solidity ^0.4.21;\n\ncontract ImplV1 {\n  uint256 public value;\n\n  function initialize(uint256 _value) public {\n    value = _value;\n  }\n\n  function say() public pure returns (string) {\n    return \"V1\";\n  }\n}\n\ncontract AnotherImplV1 is ImplV1 {\n  function say() public pure returns (string) {\n    return \"AnotherV1\";\n  }\n}\n\ncontract UninitializableImplV1 {\n  function say() public pure returns (string) {\n    return \"UninitializableImplV1\";\n  }\n}",
  "sourcePath": "/home/gjp/repos/zos-cli/contracts/mocks/ImplV1.sol",
  "compiler": {
    "name": "solc",
    "version": "0.4.24+commit.e67f0147.Emscripten.clang"
  },
  "schemaVersion": "2.0.0",
  "updatedAt": "2018-06-11T04:41:48.243Z"
}