{
  "contractName": "WithConstructor",
  "abi": [
    {
      "constant": true,
      "inputs": [],
      "name": "value",
      "outputs": [
        {
          "name": "",
          "type": "uint256"
        }
      ],
      "payable": false,
      "stateMutability": "view",
      "type": "function"
    },
    {
      "inputs": [],
      "payable": false,
      "stateMutability": "nonpayable",
      "type": "constructor"
    },
    {
      "constant": true,
      "inputs": [],
      "name": "say",
      "outputs": [
        {
          "name": "",
          "type": "string"
        }
      ],
      "payable": false,
      "stateMutability": "pure",
      "type": "function"
    }
  ],
  "bytecode": "0x608060405234801561001057600080fd5b50602a60008190555061017b806100286000396000f30060806040526004361061004c576000357c0100000000000000000000000000000000000000000000000000000000900463ffffffff1680633fa4f24514610051578063954ab4b21461007c575b600080fd5b34801561005d57600080fd5b5061006661010c565b6040518082815260200191505060405180910390f35b34801561008857600080fd5b50610091610112565b6040518080602001828103825283818151815260200191508051906020019080838360005b838110156100d15780820151818401526020810190506100b6565b50505050905090810190601f1680156100fe5780820380516001836020036101000a031916815260200191505b509250505060405180910390f35b60005481565b60606040805190810160405280600f81526020017f57697468436f6e7374727563746f7200000000000000000000000000000000008152509050905600a165627a7a72305820bc1b8ea25f977b9cd5644f5bf48c203deb11e4b8aa70bd398dec8ecd24013e4e0029",
  "source": "contract WithConstructor {\n  uint256 public value;\n\n  function WithConstructor() {\n    value = 42;\n  }\n\n  function say() pure returns (string) {\n    return \"WithConstructor\";\n  }\n}\n\ncontract WithFailingConstructor {\n  function WithFailingConstructor() {\n    assert(false);\n  }\n}\n",
  "sourcePath": "/home/gjp/repos/zos-cli/contracts/mocks/Invalid.sol",
  "compiler": {
    "name": "solc",
    "version": "0.4.24+commit.e67f0147.Emscripten.clang"
  },
  "schemaVersion": "2.0.0",
  "updatedAt": "2018-06-11T04:41:48.244Z"
}